{
    "_format": "hh-sol-artifact-1",
    "contractName": "TokenizedBallot",
    "sourceName": "contracts/TokenizedBallot.sol",
    "abi": [
        {
            "inputs": [
                {
                    "internalType": "bytes32[]",
                    "name": "proposalNames",
                    "type": "bytes32[]"
                },
                {
                    "internalType": "address",
                    "name": "_tokenContract",
                    "type": "address"
                }
            ],
            "stateMutability": "nonpayable",
            "type": "constructor"
        },
        {
            "inputs": [],
            "name": "makeSnapshot",
            "outputs": [],
            "stateMutability": "nonpayable",
            "type": "function"
        },
        {
            "inputs": [
                {
                    "internalType": "uint256",
                    "name": "",
                    "type": "uint256"
                }
            ],
            "name": "proposals",
            "outputs": [
                {
                    "internalType": "bytes32",
                    "name": "name",
                    "type": "bytes32"
                },
                {
                    "internalType": "uint256",
                    "name": "voteCount",
                    "type": "uint256"
                }
            ],
            "stateMutability": "view",
            "type": "function"
        },
        {
            "inputs": [],
            "name": "targetBlockNumber",
            "outputs": [
                {
                    "internalType": "uint256",
                    "name": "",
                    "type": "uint256"
                }
            ],
            "stateMutability": "view",
            "type": "function"
        },
        {
            "inputs": [],
            "name": "tokenContract",
            "outputs": [
                {
                    "internalType": "contract IMyVotingToken",
                    "name": "",
                    "type": "address"
                }
            ],
            "stateMutability": "view",
            "type": "function"
        },
        {
            "inputs": [
                {
                    "internalType": "uint256",
                    "name": "proposal",
                    "type": "uint256"
                },
                {
                    "internalType": "uint256",
                    "name": "amount",
                    "type": "uint256"
                }
            ],
            "name": "vote",
            "outputs": [],
            "stateMutability": "nonpayable",
            "type": "function"
        },
        {
            "inputs": [
                {
                    "internalType": "address",
                    "name": "account",
                    "type": "address"
                }
            ],
            "name": "votingPower",
            "outputs": [
                {
                    "internalType": "uint256",
                    "name": "",
                    "type": "uint256"
                }
            ],
            "stateMutability": "view",
            "type": "function"
        },
        {
            "inputs": [
                {
                    "internalType": "address",
                    "name": "",
                    "type": "address"
                }
            ],
            "name": "votingPowerSpent",
            "outputs": [
                {
                    "internalType": "uint256",
                    "name": "",
                    "type": "uint256"
                }
            ],
            "stateMutability": "view",
            "type": "function"
        },
        {
            "inputs": [],
            "name": "winnerName",
            "outputs": [
                {
                    "internalType": "bytes32",
                    "name": "winnerName_",
                    "type": "bytes32"
                }
            ],
            "stateMutability": "view",
            "type": "function"
        },
        {
            "inputs": [],
            "name": "winningProposal",
            "outputs": [
                {
                    "internalType": "uint256",
                    "name": "winningProposal_",
                    "type": "uint256"
                }
            ],
            "stateMutability": "view",
            "type": "function"
        }
    ],
    "bytecode": "0x60806040523480156200001157600080fd5b506040516200100338038062001003833981810160405281019062000037919062000349565b80600160006101000a81548173ffffffffffffffffffffffffffffffffffffffff021916908373ffffffffffffffffffffffffffffffffffffffff160217905550600160028190555060005b8251811015620001175760006040518060400160405280858481518110620000b057620000af620003af565b5b60200260200101518152602001600081525090806001815401808255809150506001900390600052602060002090600202016000909190919091506000820151816000015560208201518160010155505080806200010e9062000417565b91505062000083565b50505062000464565b6000604051905090565b600080fd5b600080fd5b600080fd5b6000601f19601f8301169050919050565b7f4e487b7100000000000000000000000000000000000000000000000000000000600052604160045260246000fd5b620001848262000139565b810181811067ffffffffffffffff82111715620001a657620001a56200014a565b5b80604052505050565b6000620001bb62000120565b9050620001c9828262000179565b919050565b600067ffffffffffffffff821115620001ec57620001eb6200014a565b5b602082029050602081019050919050565b600080fd5b6000819050919050565b620002178162000202565b81146200022357600080fd5b50565b60008151905062000237816200020c565b92915050565b6000620002546200024e84620001ce565b620001af565b905080838252602082019050602084028301858111156200027a5762000279620001fd565b5b835b81811015620002a7578062000292888262000226565b8452602084019350506020810190506200027c565b5050509392505050565b600082601f830112620002c957620002c862000134565b5b8151620002db8482602086016200023d565b91505092915050565b600073ffffffffffffffffffffffffffffffffffffffff82169050919050565b60006200031182620002e4565b9050919050565b620003238162000304565b81146200032f57600080fd5b50565b600081519050620003438162000318565b92915050565b600080604083850312156200036357620003626200012a565b5b600083015167ffffffffffffffff8111156200038457620003836200012f565b5b6200039285828601620002b1565b9250506020620003a58582860162000332565b9150509250929050565b7f4e487b7100000000000000000000000000000000000000000000000000000000600052603260045260246000fd5b7f4e487b7100000000000000000000000000000000000000000000000000000000600052601160045260246000fd5b6000819050919050565b600062000424826200040d565b91507fffffffffffffffffffffffffffffffffffffffffffffffffffffffffffffffff8203620004595762000458620003de565b5b600182019050919050565b610b8f80620004746000396000f3fe608060405234801561001057600080fd5b50600436106100935760003560e01c8063a720035111610066578063a720035114610123578063b384abef14610153578063b3b221631461016f578063c07473f614610179578063e2ba53f0146101a957610093565b8063013cf08b146100985780632a8cd29e146100c957806355a373d6146100e7578063609ff1bd14610105575b600080fd5b6100b260048036038101906100ad9190610683565b6101c7565b6040516100c09291906106d8565b60405180910390f35b6100d16101fb565b6040516100de9190610701565b60405180910390f35b6100ef610201565b6040516100fc919061079b565b60405180910390f35b61010d610227565b60405161011a9190610701565b60405180910390f35b61013d600480360381019061013891906107f4565b6102af565b60405161014a9190610701565b60405180910390f35b61016d60048036038101906101689190610821565b6102c7565b005b61017761048e565b005b610193600480360381019061018e91906107f4565b6104dc565b6040516101a09190610701565b60405180910390f35b6101b16105cf565b6040516101be9190610861565b60405180910390f35b600081815481106101d757600080fd5b90600052602060002090600202016000915090508060000154908060010154905082565b60025481565b600160009054906101000a900473ffffffffffffffffffffffffffffffffffffffff1681565b6000806000905060005b6000805490508110156102aa5781600082815481106102535761025261087c565b5b9060005260206000209060020201600101541115610297576000818154811061027f5761027e61087c565b5b90600052602060002090600202016001015491508092505b80806102a2906108da565b915050610231565b505090565b60036020528060005260406000206000915090505481565b60016002540361030c576040517f08c379a00000000000000000000000000000000000000000000000000000000081526004016103039061097f565b60405180910390fd5b80610316336104dc565b1015610357576040517f08c379a000000000000000000000000000000000000000000000000000000000815260040161034e906109eb565b60405180910390fd5b600160009054906101000a900473ffffffffffffffffffffffffffffffffffffffff1673ffffffffffffffffffffffffffffffffffffffff16633a46b1a8336002546040518363ffffffff1660e01b81526004016103b6929190610a1a565b602060405180830381865afa1580156103d3573d6000803e3d6000fd5b505050506040513d601f19601f820116820180604052508101906103f79190610a58565b5080600360003373ffffffffffffffffffffffffffffffffffffffff1673ffffffffffffffffffffffffffffffffffffffff16815260200190815260200160002060008282546104479190610a85565b9250508190555080600083815481106104635761046261087c565b5b906000526020600020906002020160010160008282546104839190610a85565b925050819055505050565b6001600254146104d3576040517f08c379a00000000000000000000000000000000000000000000000000000000081526004016104ca90610b05565b60405180910390fd5b43600281905550565b6000600360008373ffffffffffffffffffffffffffffffffffffffff1673ffffffffffffffffffffffffffffffffffffffff16815260200190815260200160002054600160009054906101000a900473ffffffffffffffffffffffffffffffffffffffff1673ffffffffffffffffffffffffffffffffffffffff16633a46b1a8846002546040518363ffffffff1660e01b815260040161057d929190610a1a565b602060405180830381865afa15801561059a573d6000803e3d6000fd5b505050506040513d601f19601f820116820180604052508101906105be9190610a58565b6105c89190610b25565b9050919050565b6000600160025403610616576040517f08c379a000000000000000000000000000000000000000000000000000000000815260040161060d9061097f565b60405180910390fd5b6000610620610227565b815481106106315761063061087c565b5b906000526020600020906002020160000154905090565b600080fd5b6000819050919050565b6106608161064d565b811461066b57600080fd5b50565b60008135905061067d81610657565b92915050565b60006020828403121561069957610698610648565b5b60006106a78482850161066e565b91505092915050565b6000819050919050565b6106c3816106b0565b82525050565b6106d28161064d565b82525050565b60006040820190506106ed60008301856106ba565b6106fa60208301846106c9565b9392505050565b600060208201905061071660008301846106c9565b92915050565b600073ffffffffffffffffffffffffffffffffffffffff82169050919050565b6000819050919050565b600061076161075c6107578461071c565b61073c565b61071c565b9050919050565b600061077382610746565b9050919050565b600061078582610768565b9050919050565b6107958161077a565b82525050565b60006020820190506107b0600083018461078c565b92915050565b60006107c18261071c565b9050919050565b6107d1816107b6565b81146107dc57600080fd5b50565b6000813590506107ee816107c8565b92915050565b60006020828403121561080a57610809610648565b5b6000610818848285016107df565b91505092915050565b6000806040838503121561083857610837610648565b5b60006108468582860161066e565b92505060206108578582860161066e565b9150509250929050565b600060208201905061087660008301846106ba565b92915050565b7f4e487b7100000000000000000000000000000000000000000000000000000000600052603260045260246000fd5b7f4e487b7100000000000000000000000000000000000000000000000000000000600052601160045260246000fd5b60006108e58261064d565b91507fffffffffffffffffffffffffffffffffffffffffffffffffffffffffffffffff8203610917576109166108ab565b5b600182019050919050565b600082825260208201905092915050565b7f54617267657420626c6f636b206973206e6f7420736574000000000000000000600082015250565b6000610969601783610922565b915061097482610933565b602082019050919050565b600060208201905081810360008301526109988161095c565b9050919050565b7f416d6f756e74206578636565647320766f74696e6720706f7765720000000000600082015250565b60006109d5601b83610922565b91506109e08261099f565b602082019050919050565b60006020820190508181036000830152610a04816109c8565b9050919050565b610a14816107b6565b82525050565b6000604082019050610a2f6000830185610a0b565b610a3c60208301846106c9565b9392505050565b600081519050610a5281610657565b92915050565b600060208284031215610a6e57610a6d610648565b5b6000610a7c84828501610a43565b91505092915050565b6000610a908261064d565b9150610a9b8361064d565b9250828201905080821115610ab357610ab26108ab565b5b92915050565b7f536e617073686f7420616c7265616479206265656e206d616465000000000000600082015250565b6000610aef601a83610922565b9150610afa82610ab9565b602082019050919050565b60006020820190508181036000830152610b1e81610ae2565b9050919050565b6000610b308261064d565b9150610b3b8361064d565b9250828203905081811115610b5357610b526108ab565b5b9291505056fea2646970667358221220284278bafaf374b2142415c0119aee489ae4f1b6a328aeab17c38e5065b56ab764736f6c63430008120033",
    "linkReferences": {},
    "deployedLinkReferences": {}
}