{
  "_format": "hh-sol-artifact-1",
  "contractName": "TokenizedBallot",
  "sourceName": "contracts/TokenizedBallot.sol",
  "abi": [
    {
      "inputs": [
        {
          "internalType": "bytes32[]",
          "name": "proposalNames",
          "type": "bytes32[]"
        },
        {
          "internalType": "address",
          "name": "_tokenContract",
          "type": "address"
        }
      ],
      "stateMutability": "nonpayable",
      "type": "constructor"
    },
    {
      "inputs": [
        {
          "internalType": "uint256",
          "name": "_index",
          "type": "uint256"
        }
      ],
      "name": "getProposalAtIndex",
      "outputs": [
        {
          "internalType": "bytes32",
          "name": "",
          "type": "bytes32"
        }
      ],
      "stateMutability": "view",
      "type": "function"
    },
    {
      "inputs": [],
      "name": "getProposalsLength",
      "outputs": [
        {
          "internalType": "uint256",
          "name": "",
          "type": "uint256"
        }
      ],
      "stateMutability": "view",
      "type": "function"
    },
    {
      "inputs": [],
      "name": "makeSnapshot",
      "outputs": [],
      "stateMutability": "nonpayable",
      "type": "function"
    },
    {
      "inputs": [
        {
          "internalType": "uint256",
          "name": "",
          "type": "uint256"
        }
      ],
      "name": "proposals",
      "outputs": [
        {
          "internalType": "bytes32",
          "name": "name",
          "type": "bytes32"
        },
        {
          "internalType": "uint256",
          "name": "voteCount",
          "type": "uint256"
        }
      ],
      "stateMutability": "view",
      "type": "function"
    },
    {
      "inputs": [],
      "name": "targetBlockNumber",
      "outputs": [
        {
          "internalType": "uint256",
          "name": "",
          "type": "uint256"
        }
      ],
      "stateMutability": "view",
      "type": "function"
    },
    {
      "inputs": [],
      "name": "tokenContract",
      "outputs": [
        {
          "internalType": "contract IMyVotingToken",
          "name": "",
          "type": "address"
        }
      ],
      "stateMutability": "view",
      "type": "function"
    },
    {
      "inputs": [
        {
          "internalType": "uint256",
          "name": "proposal",
          "type": "uint256"
        },
        {
          "internalType": "uint256",
          "name": "amount",
          "type": "uint256"
        }
      ],
      "name": "vote",
      "outputs": [],
      "stateMutability": "nonpayable",
      "type": "function"
    },
    {
      "inputs": [
        {
          "internalType": "address",
          "name": "account",
          "type": "address"
        }
      ],
      "name": "votingPower",
      "outputs": [
        {
          "internalType": "uint256",
          "name": "",
          "type": "uint256"
        }
      ],
      "stateMutability": "view",
      "type": "function"
    },
    {
      "inputs": [
        {
          "internalType": "address",
          "name": "",
          "type": "address"
        }
      ],
      "name": "votingPowerSpent",
      "outputs": [
        {
          "internalType": "uint256",
          "name": "",
          "type": "uint256"
        }
      ],
      "stateMutability": "view",
      "type": "function"
    },
    {
      "inputs": [],
      "name": "winnerName",
      "outputs": [
        {
          "internalType": "bytes32",
          "name": "winnerName_",
          "type": "bytes32"
        }
      ],
      "stateMutability": "view",
      "type": "function"
    },
    {
      "inputs": [],
      "name": "winningProposal",
      "outputs": [
        {
          "internalType": "uint256",
          "name": "winningProposal_",
          "type": "uint256"
        }
      ],
      "stateMutability": "view",
      "type": "function"
    }
  ],
  "bytecode": "0x60806040523480156200001157600080fd5b506040516200115538038062001155833981810160405281019062000037919062000349565b80600160006101000a81548173ffffffffffffffffffffffffffffffffffffffff021916908373ffffffffffffffffffffffffffffffffffffffff160217905550600160028190555060005b8251811015620001175760006040518060400160405280858481518110620000b057620000af620003af565b5b60200260200101518152602001600081525090806001815401808255809150506001900390600052602060002090600202016000909190919091506000820151816000015560208201518160010155505080806200010e9062000417565b91505062000083565b50505062000464565b6000604051905090565b600080fd5b600080fd5b600080fd5b6000601f19601f8301169050919050565b7f4e487b7100000000000000000000000000000000000000000000000000000000600052604160045260246000fd5b620001848262000139565b810181811067ffffffffffffffff82111715620001a657620001a56200014a565b5b80604052505050565b6000620001bb62000120565b9050620001c9828262000179565b919050565b600067ffffffffffffffff821115620001ec57620001eb6200014a565b5b602082029050602081019050919050565b600080fd5b6000819050919050565b620002178162000202565b81146200022357600080fd5b50565b60008151905062000237816200020c565b92915050565b6000620002546200024e84620001ce565b620001af565b905080838252602082019050602084028301858111156200027a5762000279620001fd565b5b835b81811015620002a7578062000292888262000226565b8452602084019350506020810190506200027c565b5050509392505050565b600082601f830112620002c957620002c862000134565b5b8151620002db8482602086016200023d565b91505092915050565b600073ffffffffffffffffffffffffffffffffffffffff82169050919050565b60006200031182620002e4565b9050919050565b620003238162000304565b81146200032f57600080fd5b50565b600081519050620003438162000318565b92915050565b600080604083850312156200036357620003626200012a565b5b600083015167ffffffffffffffff8111156200038457620003836200012f565b5b6200039285828601620002b1565b9250506020620003a58582860162000332565b9150509250929050565b7f4e487b7100000000000000000000000000000000000000000000000000000000600052603260045260246000fd5b7f4e487b7100000000000000000000000000000000000000000000000000000000600052601160045260246000fd5b6000819050919050565b600062000424826200040d565b91507fffffffffffffffffffffffffffffffffffffffffffffffffffffffffffffffff8203620004595762000458620003de565b5b600182019050919050565b610ce180620004746000396000f3fe608060405234801561001057600080fd5b50600436106100a95760003560e01c8063a720035111610071578063a720035114610169578063b384abef14610199578063b3b22163146101b5578063bc378a73146101bf578063c07473f6146101dd578063e2ba53f01461020d576100a9565b8063013cf08b146100ae5780632a8cd29e146100df57806355a373d6146100fd578063609ff1bd1461011b5780638b979f5114610139575b600080fd5b6100c860048036038101906100c39190610769565b61022b565b6040516100d69291906107be565b60405180910390f35b6100e761025f565b6040516100f491906107e7565b60405180910390f35b610105610265565b6040516101129190610881565b60405180910390f35b61012361028b565b60405161013091906107e7565b60405180910390f35b610153600480360381019061014e9190610769565b610313565b604051610160919061089c565b60405180910390f35b610183600480360381019061017e91906108f5565b610389565b60405161019091906107e7565b60405180910390f35b6101b360048036038101906101ae9190610922565b6103a1565b005b6101bd610568565b005b6101c76105b6565b6040516101d491906107e7565b60405180910390f35b6101f760048036038101906101f291906108f5565b6105c2565b60405161020491906107e7565b60405180910390f35b6102156106b5565b604051610222919061089c565b60405180910390f35b6000818154811061023b57600080fd5b90600052602060002090600202016000915090508060000154908060010154905082565b60025481565b600160009054906101000a900473ffffffffffffffffffffffffffffffffffffffff1681565b6000806000905060005b60008054905081101561030e5781600082815481106102b7576102b6610962565b5b90600052602060002090600202016001015411156102fb57600081815481106102e3576102e2610962565b5b90600052602060002090600202016001015491508092505b8080610306906109c0565b915050610295565b505090565b6000816000805490501161035c576040517f08c379a000000000000000000000000000000000000000000000000000000000815260040161035390610a65565b60405180910390fd5b600082815481106103705761036f610962565b5b9060005260206000209060020201600001549050919050565b60036020528060005260406000206000915090505481565b6001600254036103e6576040517f08c379a00000000000000000000000000000000000000000000000000000000081526004016103dd90610ad1565b60405180910390fd5b806103f0336105c2565b1015610431576040517f08c379a000000000000000000000000000000000000000000000000000000000815260040161042890610b3d565b60405180910390fd5b600160009054906101000a900473ffffffffffffffffffffffffffffffffffffffff1673ffffffffffffffffffffffffffffffffffffffff16633a46b1a8336002546040518363ffffffff1660e01b8152600401610490929190610b6c565b602060405180830381865afa1580156104ad573d6000803e3d6000fd5b505050506040513d601f19601f820116820180604052508101906104d19190610baa565b5080600360003373ffffffffffffffffffffffffffffffffffffffff1673ffffffffffffffffffffffffffffffffffffffff16815260200190815260200160002060008282546105219190610bd7565b92505081905550806000838154811061053d5761053c610962565b5b9060005260206000209060020201600101600082825461055d9190610bd7565b925050819055505050565b6001600254146105ad576040517f08c379a00000000000000000000000000000000000000000000000000000000081526004016105a490610c57565b60405180910390fd5b43600281905550565b60008080549050905090565b6000600360008373ffffffffffffffffffffffffffffffffffffffff1673ffffffffffffffffffffffffffffffffffffffff16815260200190815260200160002054600160009054906101000a900473ffffffffffffffffffffffffffffffffffffffff1673ffffffffffffffffffffffffffffffffffffffff16633a46b1a8846002546040518363ffffffff1660e01b8152600401610663929190610b6c565b602060405180830381865afa158015610680573d6000803e3d6000fd5b505050506040513d601f19601f820116820180604052508101906106a49190610baa565b6106ae9190610c77565b9050919050565b60006001600254036106fc576040517f08c379a00000000000000000000000000000000000000000000000000000000081526004016106f390610ad1565b60405180910390fd5b600061070661028b565b8154811061071757610716610962565b5b906000526020600020906002020160000154905090565b600080fd5b6000819050919050565b61074681610733565b811461075157600080fd5b50565b6000813590506107638161073d565b92915050565b60006020828403121561077f5761077e61072e565b5b600061078d84828501610754565b91505092915050565b6000819050919050565b6107a981610796565b82525050565b6107b881610733565b82525050565b60006040820190506107d360008301856107a0565b6107e060208301846107af565b9392505050565b60006020820190506107fc60008301846107af565b92915050565b600073ffffffffffffffffffffffffffffffffffffffff82169050919050565b6000819050919050565b600061084761084261083d84610802565b610822565b610802565b9050919050565b60006108598261082c565b9050919050565b600061086b8261084e565b9050919050565b61087b81610860565b82525050565b60006020820190506108966000830184610872565b92915050565b60006020820190506108b160008301846107a0565b92915050565b60006108c282610802565b9050919050565b6108d2816108b7565b81146108dd57600080fd5b50565b6000813590506108ef816108c9565b92915050565b60006020828403121561090b5761090a61072e565b5b6000610919848285016108e0565b91505092915050565b600080604083850312156109395761093861072e565b5b600061094785828601610754565b925050602061095885828601610754565b9150509250929050565b7f4e487b7100000000000000000000000000000000000000000000000000000000600052603260045260246000fd5b7f4e487b7100000000000000000000000000000000000000000000000000000000600052601160045260246000fd5b60006109cb82610733565b91507fffffffffffffffffffffffffffffffffffffffffffffffffffffffffffffffff82036109fd576109fc610991565b5b600182019050919050565b600082825260208201905092915050565b7f4172726179206f7574206f6620626f756e647300000000000000000000000000600082015250565b6000610a4f601383610a08565b9150610a5a82610a19565b602082019050919050565b60006020820190508181036000830152610a7e81610a42565b9050919050565b7f54617267657420626c6f636b206973206e6f7420736574000000000000000000600082015250565b6000610abb601783610a08565b9150610ac682610a85565b602082019050919050565b60006020820190508181036000830152610aea81610aae565b9050919050565b7f416d6f756e74206578636565647320766f74696e6720706f7765720000000000600082015250565b6000610b27601b83610a08565b9150610b3282610af1565b602082019050919050565b60006020820190508181036000830152610b5681610b1a565b9050919050565b610b66816108b7565b82525050565b6000604082019050610b816000830185610b5d565b610b8e60208301846107af565b9392505050565b600081519050610ba48161073d565b92915050565b600060208284031215610bc057610bbf61072e565b5b6000610bce84828501610b95565b91505092915050565b6000610be282610733565b9150610bed83610733565b9250828201905080821115610c0557610c04610991565b5b92915050565b7f536e617073686f7420616c7265616479206265656e206d616465000000000000600082015250565b6000610c41601a83610a08565b9150610c4c82610c0b565b602082019050919050565b60006020820190508181036000830152610c7081610c34565b9050919050565b6000610c8282610733565b9150610c8d83610733565b9250828203905081811115610ca557610ca4610991565b5b9291505056fea264697066735822122066600608f2382294260128d48e159d8be6f0b59c1296a7167ddf094f130b3eea64736f6c63430008120033",
  "linkReferences": {},
  "deployedLinkReferences": {}
}